{
  "contractName": "SimpleStorage",
  "abi": [
    {
      "inputs": [
        {
          "internalType": "string",
          "name": "x",
          "type": "string"
        }
      ],
      "name": "set",
      "outputs": [],
      "stateMutability": "nonpayable",
      "type": "function"
    },
    {
      "inputs": [],
      "name": "get",
      "outputs": [
        {
          "internalType": "string",
          "name": "",
          "type": "string"
        }
      ],
      "stateMutability": "view",
      "type": "function"
    }
  ],
  "bytecode": "0x60806040526040518060c00160405280608981526020016103f96089913960009080519060200190610032929190610045565b5034801561003f57600080fd5b506100e2565b828054600181600116156101000203166002900490600052602060002090601f016020900481019282601f1061008657805160ff19168380011785556100b4565b828001600101855582156100b4579182015b828111156100b3578251825591602001919060010190610098565b5b5090506100c191906100c5565b5090565b5b808211156100de5760008160009055506001016100c6565b5090565b610308806100f16000396000f3fe608060405234801561001057600080fd5b50600436106100365760003560e01c80634ed3885e1461003b5780636d4ce63c146100f6575b600080fd5b6100f46004803603602081101561005157600080fd5b810190808035906020019064010000000081111561006e57600080fd5b82018360208201111561008057600080fd5b803590602001918460018302840111640100000000831117156100a257600080fd5b91908080601f016020809104026020016040519081016040528093929190818152602001838380828437600081840152601f19601f820116905080830192505050505050509192919290505050610179565b005b6100fe610193565b6040518080602001828103825283818151815260200191508051906020019080838360005b8381101561013e578082015181840152602081019050610123565b50505050905090810190601f16801561016b5780820380516001836020036101000a031916815260200191505b509250505060405180910390f35b806000908051906020019061018f929190610235565b5050565b606060008054600181600116156101000203166002900480601f01602080910402602001604051908101604052809291908181526020018280546001816001161561010002031660029004801561022b5780601f106102005761010080835404028352916020019161022b565b820191906000526020600020905b81548152906001019060200180831161020e57829003601f168201915b5050505050905090565b828054600181600116156101000203166002900490600052602060002090601f016020900481019282601f1061027657805160ff19168380011785556102a4565b828001600101855582156102a4579182015b828111156102a3578251825591602001919060010190610288565b5b5090506102b191906102b5565b5090565b5b808211156102ce5760008160009055506001016102b6565b509056fea26469706673582212209c43a5d348e8c9062f53988bf179fd80869bdd32a4f0f33a187360f276bc85e364736f6c634300060c0033202020202a202a202a2020202a202a202a0a20202a202a2020202a202a202a2020202a202a0a20202a202020202020202a202020202020202a0a20202a202a20202020202020202020202a202a0a202020202a202a202020202020202a202a0a2020202020202a202a2020202a202a0a20202020202020202a202a202a0a202020202020202020202a",
  "immutableReferences": {},
  "source": "// SPDX-License-Identifier: GPL-3.0\r\npragma solidity >=0.4.16 <0.9.0;\r\n\r\ncontract SimpleStorage {\r\n    string  storedData = \r\n      '    * * *   * * *\\n' \r\n      '  * *   * * *   * *\\n' \r\n      '  *       *       *\\n' \r\n      '  * *           * *\\n' \r\n      '    * *       * *\\n' \r\n      '      * *   * *\\n' \r\n      '        * * *\\n' \r\n      '          *';\r\n\r\n    function set(string memory x) public {\r\n        storedData = x;\r\n    }\r\n\r\n    function get() public view returns (string memory) {\r\n        return storedData;\r\n    }\r\n}",
  "sourcePath": "E:/Project/NFT-v0.1.0/contracts/test1.sol",
  "compiler": {
    "name": "solc",
    "version": "0.6.12+commit.27d51765.Emscripten.clang"
  },
  "schemaVersion": "3.4.1",
  "updatedAt": "2021-07-02T08:32:57.655Z",
  "devdoc": {
    "kind": "dev",
    "methods": {},
    "version": 1
  },
  "userdoc": {
    "kind": "user",
    "methods": {},
    "version": 1
  }
}